:020000021000EC
:10000000F8FF0510D91305002D140500B5010100F6
:10001000BB010100C1010100C70101000000000097
:1000200000000000000000000000000019020100B4
:100030002F14050000000000B1020100C102010000
:100040002F140500951801002F1405002F1405002A
:100050002F1405002F1405002F1405002F14050080
:100060002F1405002F1405002F1405002F14050070
:10007000D1DB0300F50B0500A5120500CD19050025
:10008000D31905002F1405002F1405002F140500A7
:100090002F1405002F1405002F1405002F14050040
:1000A0002F1405002F1405002F1405002F14050030
:1000B0002F1405005D1B01002F1405002F140500EF
:1000C0000000000000000000000000000000000030
:1000D0000000000000000000000000000000000020
:1000E0000000000000000000000000000000000010
:1000F0000000000000000000000000000000000000
:1001000010B5054C237833B9044B13B10448AFF351
:1001100000800123237010BDC012001000000000F9
:10012000FCB0060008B5034B1BB103490348AFF30D
:10013000008008BD00000000C4120010FCB00600E2
:10014000154B002B08BF134B9D46A3F5803A0021A9
:100150008B460F461348144A121A47F0FDFA0F4B0C
:10016000002B00D098470E4B002B00D09847002062
:10017000002104000D000D48002802D00C483EF07C
:10018000F1FB47F029FA200029003EF049FB3EF040
:10019000E5FD00BF00000800F8FF051000000000AA
:1001A0007DE70400C0120010D0C0001065E9040013
:1001B00000000000102300F007B8202300F004B86E
:1001C000302300F001B840239C46F0B404AE7546DD
:1001D000E80801D3EFF309860E4F0FCE0FC70FBC0F
:1001E0000FC74046494652465B460FC71DCE3100F9
:1001F000A60A00D304316E0900D248311FC7EFF3BD
:1002000009806946EFF3148663C7604601493DF0F3
:1002100013FD00BF786C00101EF0040F0CBFEFF34D
:100220000880EFF30980816911F8021C91BB01B5C8
:1002300090E80F10E047BDE800508CE80300244B25
:1002400093E80600914208BF704741B91EF0100FB5
:1002500010D12049086820F0010008600AE02CE96C
:10026000F00F1EF0100F08BF2CED108AC1F838C037
:1002700081F822E01A6092F82210906B61F0FF0E74
:100280001EF0100F08BFB0EC108AB0E8F00F80F33A
:1002900009887047104A13689942FAD801B552F894
:1002A00021C00FC8E047BDE80050CCF800007047FF
:1002B00001B53FF0F1FDBDE80140EFF3098CBEE769
:1002C00001B53FF0B1FDBDE80140EFF3098CB6E7A1
:1002D0007806001034EF00E0A878060081F00041B5
:1002E00002E000BF83F0004330B54FEA41044FEA1B
:1002F000430594EA050F08BF90EA020F1FBF54EAB6
:10030000000C55EA020C7FEA645C7FEA655C00F051
:10031000E2804FEA5454D4EB5555B8BF6D420CDD22
:100320002C4480EA020281EA030382EA000083EAA5
:10033000010180EA020281EA0303362D88BF30BD45
:1003400011F0004F4FEA01314FF4801C4CEA11319B
:1003500002D0404261EB410113F0004F4FEA0333FA
:100360004CEA133302D0524263EB430394EA050F85
:1003700000F0A780A4F10104D5F1200E0DDB02FAF4
:100380000EFC22FA05F2801841F1000103FA0EF288
:10039000801843FA05F359410EE0A5F120050EF14E
:1003A000200E012A03FA0EFC28BF4CF0020C43FA7F
:1003B00005F3C01851EBE37101F0004507D54FF08C
:1003C000000EDCF1000C7EEB00006EEB0101B1F5DC
:1003D000801F1BD3B1F5001F0CD349085FEA300022
:1003E0004FEA3C0C04F101044FEA445212F5800F2D
:1003F00080F09A80BCF1004F08BF5FEA500C50F1CA
:10040000000041EB045141EA050130BD5FEA4C0CAC
:10041000404141EB010111F4801FA4F10104E9D135
:1004200091F0000F04BF01460020B1FA81F308BF2C
:100430002033A3F10B03B3F120020CDA0C3208DDF8
:1004400002F1140CC2F10C0201FA0CF021FA02F1D3
:100450000CE002F11402D8BFC2F1200C01FA02F143
:1004600020FA0CFCDCBF41EA0C019040E41AA2BF68
:1004700001EB0451294330BD6FEA04041F3C1CDA30
:100480000C340EDC04F11404C4F1200220FA04F050
:1004900001FA02F340EA030021FA04F345EA0301FA
:1004A00030BDC4F10C04C4F1200220FA02F001FABC
:1004B00004F340EA0300294630BD21FA04F029463E
:1004C00030BD94F0000F83F4801306BF81F48011D7
:1004D0000134013D4EE77FEA645C18BF7FEA655C4A
:1004E00029D094EA050F08BF90EA020F05D054EA1C
:1004F000000C04BF1946104630BD91EA030F1EBF21
:100500000021002030BD5FEA545C05D14000494124
:1005100028BF41F0004130BD14F580043CBF01F517
:10052000801130BD01F0004545F0FE4141F47001FD
:100530004FF0000030BD7FEA645C1ABF19461046D8
:100540007FEA655C1CBF0B46024650EA013406BFD9
:1005500052EA033591EA030F41F4002130BD00BF98
:1005600090F0000F04BF0021704730B54FF4806455
:1005700004F132044FF000054FF0000150E700BFD6
:1005800090F0000F04BF0021704730B54FF4806435
:1005900004F1320410F0004548BF40424FF0000122
:1005A0003EE700BF42004FEAE2014FEA31014FEA65
:1005B00002701FBF12F07F4393F07F4F81F06051B4
:1005C000704732F07F4208BF704793F07F4F04BFFF
:1005D00041F40021704730B54FF4607401F00045DC
:1005E00021F000411CE700BF50EA010208BF70473C
:1005F00030B54FF000050AE050EA010208BF70472D
:1006000030B511F0004502D5404261EB41014FF495
:10061000806404F132045FEA915C3FF4D8AE4FF09D
:1006200003025FEADC0C18BF03325FEADC0C18BF80
:10063000033202EBDC02C2F1200300FA03FC20FAD1
:1006400002F001FA03FE40EA0E0021FA02F114441E
:10065000BDE600BF70B54FF0FF0C4CF4E06C1CEA37
:1006600011541DBF1CEA135594EA0C0F95EA0C0FA8
:1006700000F0DEF82C4481EA030621EA4C5123EA1B
:100680004C5350EA013518BF52EA033541F480114A
:1006900043F4801338D0A0FB02CE4FF00005E1FBFD
:1006A00002E506F00042E0FB03E54FF00006E1FB47
:1006B00003569CF0000F18BF4EF0010EA4F1FF048A
:1006C000B6F5007F64F5407404D25FEA4E0E6D41CA
:1006D00046EB060642EAC62141EA55514FEAC520DB
:1006E00040EA5E504FEACE2EB4F1FD0C88BFBCF557
:1006F000E06F1ED8BEF1004F08BF5FEA500E50F108
:10070000000041EB045170BD06F0004646EA0101CD
:1007100040EA020081EA0301B4EB5C04C2BFD4EBFF
:100720000C0541EA045170BD41F480114FF0000EF8
:10073000013C00F3AB8014F1360FDEBF002001F066
:10074000004170BDC4F10004203C35DA0C341BDCE0
:1007500004F11404C4F1200500FA05F320FA04F0B2
:1007600001FA05F240EA020001F0004221F00041E6
:1007700010EBD37021FA04F642EB06015EEA430E59
:1007800008BF20EAD37070BDC4F10C04C4F1200589
:1007900000FA04F320FA05F001FA04F240EA02003C
:1007A00001F0004110EBD37041F100015EEA430E0D
:1007B00008BF20EAD37070BDC4F1200500FA05F22D
:1007C0004EEA020E20FA04F301FA05F243EA0203AC
:1007D00021FA04F001F0004121FA04F220EA0200BB
:1007E00000EBD3705EEA430E08BF20EAD37070BD01
:1007F00094F0000F0FD101F00046400041EB0101E1
:1008000011F4801F08BF013CF7D041EA060195F0C2
:10081000000F18BF704703F00046520043EB03037C
:1008200013F4801F08BF013DF7D043EA0603704769
:1008300094EA0C0F0CEA135518BF95EA0C0F0CD074
:1008400050EA410618BF52EA4306D1D181EA0301BA
:1008500001F000414FF0000070BD50EA410606BFB4
:100860001046194652EA430619D094EA0C0F02D1F9
:1008700050EA013613D195EA0C0F05D152EA03363E
:100880001CBF104619460AD181EA030101F000415C
:1008900041F0FE4141F470014FF0000070BD41F0A5
:1008A000FE4141F4780170BD70B54FF0FF0C4CF47F
:1008B000E06C1CEA11541DBF1CEA135594EA0C0F9E
:1008C00095EA0C0F00F0A7F8A4EB050481EA030EEB
:1008D00052EA03354FEA013100F088804FEA0333D2
:1008E0004FF0805545EA131343EA12634FEA0222A0
:1008F00045EA111545EA10654FEA00260EF0004161
:100900009D4208BF964244F1FD0404F5407402D2B2
:100910005B084FEA3202B61A65EB03055B084FEA43
:1009200032024FF480104FF4002CB6EB020E75EB40
:10093000030E22BFB61A754640EA0C005B084FEA68
:100940003202B6EB020E75EB030E22BFB61A7546E5
:1009500040EA5C005B084FEA3202B6EB020E75EB30
:10096000030E22BFB61A754640EA9C005B084FEAA8
:100970003202B6EB020E75EB030E22BFB61A7546B5
:1009800040EADC0055EA060E18D04FEA051545EAA4
:1009900016754FEA06164FEAC30343EA52734FEA4D
:1009A000C2025FEA1C1CC0D111F4801F0BD141EAC6
:1009B00000014FF000004FF0004CB6E711F4801F2B
:1009C00004BF01430020B4F1FD0C88BFBCF5E06F0B
:1009D0003FF6AFAEB5EB030C04BFB6EB020C5FEA1B
:1009E000500C50F1000041EB045170BD0EF0004E70
:1009F0004EEA113114EB5C04C2BFD4EB0C0541EAA2
:100A0000045170BD41F480114FF0000E013C90E69E
:100A100045EA060E8DE60CEA135594EA0C0F08BF62
:100A200095EA0C0F3FF43BAF94EA0C0F0AD150EA61
:100A300001347FF434AF95EA0C0F7FF425AF1046F4
:100A400019462CE795EA0C0F06D152EA03353FF41C
:100A5000FDAE1046194622E750EA410618BF52EA99
:100A600043067FF4C5AE50EA41047FF40DAF52EA6D
:100A700043057FF4EBAE12E74FF0FF3C06E000BF0A
:100A80004FF0010C02E000BF4FF0010C4DF804CD17
:100A90004FEA410C7FEA6C5C4FEA430C18BF7FEAD7
:100AA0006C5C1BD001B050EA410C0CBF52EA430C05
:100AB00091EA030F02BF90EA020F0020704710F185
:100AC000000F91EA030F58BF994208BF90422CBF14
:100AD000D8176FEAE37040F0010070474FEA410C0D
:100AE0007FEA6C5C02D150EA013C07D14FEA430C2B
:100AF0007FEA6C5CD6D152EA033CD3D05DF8040B9C
:100B0000704700BF8446104662468C4619466346CD
:100B100000E000BF01B5FFF7B7FF002848BF10F1A4
:100B2000000F01BD4DF808EDFFF7F4FF0CBF0120E9
:100B300000205DF808FB00BF4DF808EDFFF7EAFF65
:100B400034BF012000205DF808FB00BF4DF808ED20
:100B5000FFF7E0FF94BF012000205DF808FB00BF15
:100B60004DF808EDFFF7CEFF94BF012000205DF89F
:100B700008FB00BF4DF808EDFFF7C4FF34BF0120AC
:100B800000205DF808FB00BF4FEA410C7FEA6C5C77
:100B900002D150EA013C0AD14FEA430C7FEA6C5C77
:100BA00002D152EA033C02D14FF0000070474FF0EF
:100BB000010070474FEA410212F5001215D211D51B
:100BC0006FF47873B3EB625212D94FEAC12343F04A
:100BD000004343EA505311F0004F23FA02F018BFCC
:100BE000404270474FF00000704750EA013005D195
:100BF00011F0004008BF6FF0004070474FF0000058
:100C0000704700BF4A0011D212F5001211D20DD563
:100C10006FF47873B3EB62520ED44FEAC12343F002
:100C2000004343EA505323FA02F070474FF00000AC
:100C3000704750EA013002D14FF0FF3070474FF05B
:100C4000000070474FEA4102B2F1E04324BFB3F520
:100C5000001CDCF1FE5C0DD901F0004C4FEAC00233
:100C60004CEA5070B2F1004F40EB830008BF20F017
:100C70000100704711F0804F21D113F13872BCBFD1
:100C800001F00040704741F480114FEA5252C2F126
:100C90001802C2F1200C10FA0CF320FA02F018BF6F
:100CA00040F001004FEAC1234FEAD32303FA0CFCC2
:100CB00040EA0C0023FA02F34FEA4303CCE77FEA51
:100CC000625307D150EA01331EBF4FF0FE4040F49B
:100CD0004000704701F0004040F0FE4040F400004A
:100CE000704700BF80F0004002E000BF81F000418B
:100CF00042001FBF5FEA410392EA030F7FEA226CC2
:100D00007FEA236C6AD04FEA1262D2EB1363C1BF51
:100D1000D218414048404140B8BF5B42192B88BFC0
:100D2000704710F0004F40F4000020F07F4018BFE3
:100D3000404211F0004F41F4000121F07F4118BF03
:100D4000494292EA030F3FD0A2F1010241FA03FCAB
:100D500010EB0C00C3F1200301FA03F100F0004393
:100D600002D5494260EB4000B0F5000F13D3B0F15B
:100D7000807F06D340084FEA310102F10102FE2ACA
:100D800051D2B1F1004F40EBC25008BF20F001003A
:100D900040EA03007047490040EB000010F4000FE8
:100DA000A2F10102EDD1B0FA80FCACF1080CB2EB7B
:100DB0000C0200FA0CF0AABF00EBC25052421843DA
:100DC000BCBFD0401843704792F0000F81F400017F
:100DD00006BF80F400000132013BB5E74FEA410352
:100DE0007FEA226C18BF7FEA236C21D092EA030FBE
:100DF00004D092F0000F08BF0846704790EA010F38
:100E00001CBF0020704712F07F4F04D1400028BF64
:100E100040F00040704712F100723CBF00F5000046
:100E2000704700F0004343F0FE4040F4000070477C
:100E30007FEA226216BF08467FEA23630146420228
:100E400006BF5FEA412390EA010F40F4800070473B
:100E50004FF0000304E000BF10F0004348BF4042E1
:100E60005FEA000C08BF704743F0964301464FF01D
:100E700000001CE050EA010208BF70474FF0000379
:100E80000AE000BF50EA010208BF704711F00043BA
:100E900002D5404261EB41015FEA010C02BF84468A
:100EA0000146002043F0B64308BFA3F18053A3F5E9
:100EB0000003BCFA8CF2083AA3EBC25310DB01FA30
:100EC00002FC634400FA02FCC2F12002BCF1004FB4
:100ED00020FA02F243EB020008BF20F00100704745
:100EE00002F1200201FA02FCC2F1200250EA4C0099
:100EF00021FA02F243EB020008BF20EADC707047DF
:100F00007BB972B90029BEBF00204FF0004106E056
:100F100008BF00281CBF6FF000414FF0FF3000F009
:100F2000DDB9ADF1080C6DE904CE002909DB002B19
:100F30001ADB00F06BF8DDF804E0DDE9022304B011
:100F40007047404261EB4101002B1BDB00F05EF873
:100F5000DDF804E0DDE9022304B0404261EB410129
:100F6000524263EB43037047524263EB430300F08A
:100F70004DF8DDF804E0DDE9022304B0404261EB06
:100F800041017047524263EB430300F03FF8DDF844
:100F900004E0DDE9022304B0524263EB43037047EF
:100FA00053B94AB9002908BF00281CBF4FF0FF31D0
:100FB0004FF0FF3000F092B9ADF1080C6DE904CEAE
:100FC00000F024F8DDF804E0DDE9022304B0704706
:100FD000D0B500220B4B06460F46FFF73BFBFFF751
:100FE00011FE0446FFF7BCFA0022074BFFF732FB65
:100FF00002460B4630463946FFF774F9FFF702FE0A
:101000002146D0BD0000F03D0000F0412DE9F04741
:10101000089E04468846002B40F085808A4215468B
:1010200048D9B2FA82F24AB1C2F1200701FA02F3BA
:1010300020FA07F7954047EA030894404FEA154E17
:10104000230CB8FBFEF71FFA85FC0EFB178843EA5A
:10105000084307FB0CF1994209D9EB1807F1FF305F
:1010600080F0E380994240F2E080023F2B445B1A1B
:10107000A4B2B3FBFEF00EFB103344EA034400FBC2
:101080000CFCA44509D92C1900F1FF3380F0CB806A
:10109000A44540F2C88002382C4440EA0740A4EB43
:1010A0000C0400271EB1D4400023C6E90043394692
:1010B000BDE8F087002A53D0B2FA82F2002A40F04D
:1010C000B680491B4FEA154E1FFA85F80127B1FB80
:1010D000FEFC230C0EFB1C1143EA014308FB0CF140
:1010E000994207D9EB180CF1FF3002D2994200F275
:1010F000EC808446591AA3B2B1FBFEF00EFB10142B
:1011000043EA044408FB00F8A04507D92C1900F174
:10111000FF3302D2A04500F2DC801846A4EB08049D
:1011200040EA0C40BEE78B4208D9002E78D0002759
:10113000C6E9000138463946BDE8F087B3FA83F7BF
:101140007FB98B4202D3824200F2BD80841A61EBE8
:10115000030301209846002EA9D0C6E90048A6E75F
:10116000FFDEC7F12005BB4022FA05FC4CEA030C68
:1011700001FA07F420FA05F821FA05F34FEA1C4EAC
:1011800048EA0404B3FBFEF9210C0EFB19331FFAE5
:101190008CF841EA034309FB08FA9A4502FA07F280
:1011A00000FA07F10BD91CEB030309F1FF3080F0C3
:1011B00088809A4540F28580A9F102096344A3EB37
:1011C0000A03A4B2B3FBFEF00EFB103344EA03445F
:1011D00000FB08F8A04508D91CEB040400F1FF331C
:1011E0006BD2A04569D90238644440EA0940A4EBB7
:1011F0000804A0FB02894C45C6464B4654D351D047
:10120000002E69D0B1EB0E0264EB030404FA05F57D
:1012100022FA07F3FC401D43C6E90054002746E7C5
:101220003746304643E7184637E707461FE7C2F11F
:10123000200320FA03F7954001FA02F021FA03F3A4
:101240004FEA154E3843010CB3FBFEF71FFA85F841
:101250000EFB173341EA034107FB08F38B4204FA04
:1012600002F407D9691807F1FF3C28D28B4226D92E
:10127000023F2944CB1A81B2B3FBFEF00EFB1033C0
:1012800041EA034100FB08F38B4207D9691800F1DA
:10129000FF3C10D28B420ED902382944C91A40EAC9
:1012A000074714E74145ABD2B8EB020E69EB0C02DD
:1012B00001381346A4E76046F0E7184695E767460D
:1012C000D8E781467BE7384645E7ACF1020C2B4472
:1012D00010E702382C4421E73746E8E6704700BFA4
:1012E00010F8012B11F8013B012A28BF9A42F7D0D0
:1012F000D01A7047034613F8012B002AFBD1181AA5
:101300000138704738B50022002304460D46FFF728
:1013100013FC28B920462946BDE83840FFF758BEDF
:10132000204605F10041FFF753FE404261EB4101C9
:1013300038BD00BF0020704770470000014B0122FC
:101340001A707047E4120010014B01221A707047A6
:10135000E5120010014B01221A707047E6120010CE
:1013600000787047F0B589B001AC014625460020F1
:101370000A268B0803EB510303EB131303EB132330
:1013800003EB1343DB088F1D06FB137703EB1713E7
:1013900006FB1311303104F8011B01301946002BF4
:1013A000E7D152B1511E034613F1FF3303D3EC5C76
:1013B00001F8014FF8E70023135409B0F0BD000015
:1013C000B5EE400AF1EE10FA2DE9F04106468846E6
:1013D000174604D1454B03600320BDE8F08110EEB1
:1013E000102AC2F3C751A1F17F03C2F316051E2BC9
:1013F00045F4000574DC13F1170F74DB162B0FDDB9
:10140000A1F19600002A05FA00F02CDB34460025F5
:1014100000282BD0DEBF2D2304F8013B40420DE015
:10142000002B15DBC3F117007E3945FA00F0002AC6
:1014300005FA01F525F07F4510DB34462246C11739
:10144000FFF790FF234613F8012B92B11C46F9E7F2
:10145000DB43002A45FA03F507DA002034462D2342
:1014600004F8013BD4E70025F8E70446302304F8EC
:10147000013B2E23237035B93023A01C6370002359
:101480000370801BA9E7631C981B3F1A781E8045D8
:10149000A8BF804619460A20E4430F194543474533
:1014A0004FEA256205DA303201F8012B25F07F453D
:1014B000F3E7B8F1000FACBF03EB0800181C042AD7
:1014C000DDDD431E3021B342D9D31A782E2A02D053
:1014D000392A02D11970013BF5E701321A70CEE7C3
:1014E0006FF0010079E74FF0FF3076E7302E3000E3
:1014F0007047000010B5044B044640F8103B19F04B
:101500006AFD204610BD00BF7C9D050010B5044B50
:10151000044640F8083B19F05EFD204610BD00BFB0
:10152000C49D05000346806C08B118F0D2BBD86C8E
:1015300008B117F0A1B84FF0FF307047007870473E
:10154000007870470078704770B505460C4608462D
:1015500049B1FFF7CFFE2B680246214628465B685B
:10156000BDE87040184770BD70B500F118050E4613
:101570002946044616F059F831462846012216F04D
:1015800049F82046BDE8704016F098B800B50A4604
:10159000D0F880148FB051B100236846ADF8003008
:1015A0008DF8023018F060FD0FB05DF804FBD0F844
:1015B00084040028F8D08DF83110ADF832100B46B5
:1015C0000146684617F0E1FAEEE700B50A46D0F8A2
:1015D00080148FB079B10023ADF800308DF802305F
:1015E0006846012318F040FD10B1684619F09EF9D5
:1015F0000FB05DF804FBD0F884040028F8D08DF813
:101600003110ADF8321001230146684617F0BDFADB
:1016100008B90020ECE7684617F041FC0028F8D034
:10162000E6E7836B5BB1187810F008001EBFD8693D
:101630005B69C01A0028B8BF6FF000407047C06BEC
:10164000A0B190F831301B0711D5D0E90432D0E9B0
:1016500000105B1A62EB00021846114600236FF07F
:1016600000428B4208BF824238BF104670470023B9
:101670001A46F1E708B51030FFF7D3FF08BD10B4E4
:10168000846B24B120465DF8044B18F0E9BAC06BB6
:1016900018B15DF8044B16F0B6BF4FF0FF305DF89F
:1016A000044B7047836B13B1D86900217047C36B3B
:1016B00013B1D3E9040170471846F6E7836B33B1E1
:1016C0001B7813F0D00F14BF012000207047C06BAF
:1016D0000028FBD090F8313013F0500FF3E70000F2
:1016E0001346074A10B40C46116821B122465DF832
:1016F000044B19F081BC08465DF8044B704700BFED
:10170000982B00100346806B08B118F0EBB9D86B2A
:1017100008B116F0BABE4FF0FF30704707B501228E
:101720000DF107011030FFF7EDFF01280CBF9DF808
:1017300007004FF0FF3003B05DF804FB10B504461E
:10174000806B10B1002118F0F4FAE06B28B1002290
:101750000023BDE8104016F0A5BF10BD0346806B06
:1017600008B118F0E5BBD86B08B117F04DBC704755
:1017700008B51030FFF7F2FF08BDF0B4D0F838C05C
:101780009DF810409DF814509DF818609DF81C704D
:10179000BCF1000F07D0CDE90667CDE904456046EE
:1017A000F0BC18F092BCC06B30B1CDE90667CDE952
:1017B0000445F0BC17F0A1BCF0BC70470346806B39
:1017C00008B118F0D7BCD86B08B117F089BD7047C5
:1017D00007B501228DF8071008300DF10701FFF75A
:1017E000EDFF03B05DF804FB08B51030FFF7E6FF2E
:1017F00008BD07B501228DF8071010300DF1070163
:10180000FFF7DCFF03B05DF804FB00000000000000
:10181000002310B583814FF0FF3303610CA3D3E99C
:101820000023C0E906230CA3D3E90023C0E9082361
:101830000BA3D3E90023C0E90A230BA3D3E90023B8
:101840000446C0E90C23383028F0B2FE204610BD13
:10185000D5CC5A0A48FB2F3FD5CC5A0A48FB3F3F0C
:10186000E69315C3D501503F51FA42C879FF5F3F57
:1018700070B500F138050E462946044628F0F9FBFC
:1018800031462846012228F09BFE2046BDE87040E4
:1018900028F072BD08B5064829F0D6FB054B1B7829
:1018A00023B10348BDE8084029F0C6BB08BD00BF0E
:1018B000182C00100401001010B5064C142320460B
:1018C0001022022129F092FB2046BDE8104029F0A9
:1018D000A7BB00BF182C0010084B93F86D2052B91D
:1018E000D3E9042306480021994208BF904234BF3F
:1018F0000120002070470020704700BF0801001041
:101900007F841E0010B5064C94F8880038B10B2077
:101910002AF096F894F889301B1A5842584110BDA5
:101920000801001070B5124C94F88A5015B90025C2
:10193000284670BDD4E924239A42F8D00D4E304693
:101940001AF090F8D6E905323C2101FB0323D4E9D3
:101950002412914204DD8B42EADA9342E8DBE6E7A7
:101960008B42E4DB9342ACBF00250125E0E700BFDA
:1019700008010010C016001070B5FFF7C3FF214C1E
:1019800088B1D4F88C304FF47A7058431E4B98428B
:1019900098BFC0034FF47A738ABFB0FBF3F0B0FB7B
:1019A000F3F0C00370BDFFF7BDFF18B3174DD4F8B7
:1019B0008C6028461AF056F8D5E90531D4F8940021
:1019C0003C2250434A434FF4616101FB0323EA691F
:1019D0001344C31A48BF03F5A833D4F88C2048BF7A
:1019E00003F5C0739A424FF47A70D4BF704303FB7F
:1019F0000000CBE74FF47A720023D4E90401FFF72B
:101A0000CFFAC3E708010010B7FF0100C0160010AD
:101A100008B5FFF761FF30B9FFF784FF18B9BDE8DB
:101A20000840FFF76FBF012008BD0000114B196887
:101A3000114B10B51C6860B960F3471160F347148F
:101A400008203FF0F5FC21460920BDE810403FF09A
:101A5000EFBC012805D1022363F3471163F3471458
:101A6000EEE7062801D10323F6E70C280CBF042378
:101A70000523F1E75C79060060790600034B1968DD
:101A8000022363F3471106203FF0D2BC50790600D1
:101A900008B50A4B19680C2041F007013FF0C8FC5B
:101AA000074B196801F0180343F0270363F307019C
:101AB0000D20BDE808403FF0BBBC00BF4C790600DC
:101AC0004879060030B50D4C85B00546204619F022
:101AD000C9FF237FA2680393237E0293237D019392
:101AE00002F5FA62237C009392B2237B022105F176
:101AF0001000FFF742FE05B030BD00BFC016001059
:101B000030B5154C85B00546204619F0ABFF237F54
:101B1000A2680393237E0293237D01931035237CD7
:101B2000009302F5FA62237B92B201212846FFF767
:101B300024FE237FA2680393237E0293237D0193D7
:101B400002F5FA62237C009392B2237B042128469B
:101B5000FFF713FE05B030BDC016001008B5002019
:101B600043F05CFD430604D54020BDE8084043F047
:101B70004FBD08BD2DE9F047DFF85090DFF850A0C9
:101B8000114E8046154608464F1CC047044660B1BA
:101B90000146484629F0E8FA9AF885301BB12146FB
:101BA000304629F0E1FA3946EDE75DB1074829F002
:101BB000DFFA074B93F8853023B10348BDE8F047BF
:101BC00029F0D6BABDE8F087202C0010A82D00100F
:101BD00008010010014600220148FFF7CBBF00BFFB
:101BE00061130100014600220148FFF7C3BF00BF97
:101BF00041150100014601220148FFF7BBBF00BFAC
:101C000045150100014601220148FFF7B3BF00BF9F
:101C10003D1501002DE9F04311491248A5B0FFF729
:101C2000B5FC18B10E490F48FFF7CFFC00254FF463
:101C30007A73CDE9115340F209220B4B08491093F6
:101C400014A8CDE92255FFF74BFD88B90748FFF7E7
:101C5000D9FF10A8FFF74EFC25B0BDE8F08300BF08
:101C6000F8FD0500581A0010A09D050009FE0500AA
:101C7000CB4CCC490DF118080BA829F0F2FC0A2234
:101C80002168404629F04DFD41460BA829F0E3FDAF
:101C9000014610A829F07EFA404629F09CFC0BA8CA
:101CA00029F099FCC0490BA829F0DBFC0A226168E5
:101CB000404629F036FD41460BA829F0CCFD0146EF
:101CC00010A829F067FA404629F085FC0BA829F0F6
:101CD00082FCB6490BA829F0C4FC0A22A168404640
:101CE00029F01FFD41460BA829F0B5FD014610A8BB
:101CF00029F050FA404629F06EFC0BA829F06BFC45
:101D0000AB490BA829F0ADFC0A22E168404629F056
:101D100008FD41460BA829F09EFD014610A829F0B8
:101D200039FA404629F057FC0BA829F054FCD4E9B5
:101D3000046756EA070340F047873023ADF82C309C
:101D40009C4903A829F08DFC0BA9684629F089FC61
:101D5000694603A829F07FFD014610A829F01AFA68
:101D6000684629F038FC03A829F035FC924903A8FD
:101D700029F077FC0A22217E684629F0D2FC6946C8
:101D800003A829F068FD014610A829F003FA684667
:101D900029F021FC03A829F01EFC884903A829F09A
:101DA00060FC0A22617E684629F0BBFC694603A8F4
:101DB00029F051FD014610A829F0ECF9684629F0F8
:101DC0000AFC03A829F007FC7D4903A829F049FC77
:101DD0000A22A17E684629F0A4FC694603A829F0DE
:101DE0003AFD014610A829F0D5F9684629F0F3FB21
:101DF00003A829F0F0FB734903A829F032FC0A225A
:101E0000E17E684629F08DFC694603A829F023FD90
:101E1000014610A829F0BEF9684629F0DCFB03A8AA
:101E200029F0D9FB684903A829F01BFC0A22217F6D
:101E3000684629F076FC694603A829F00CFD0146A6
:101E400010A829F0A7F9684629F0C5FB03A829F0D6
:101E5000C2FB5E4903A829F004FC0A22617F6846A0
:101E600029F05FFC694603A829F0F5FC014610A89B
:101E700029F090F9684629F0AEFB03A829F0ABFBE6
:101E8000534903A829F0EDFB0A22A17F684629F0F7
:101E900048FC694603A829F0DEFC014610A829F099
:101EA00079F9684629F097FB03A829F094FB494982
:101EB00003A829F0D6FB0A22E17F684629F031FC0D
:101EC000694603A829F0C7FC014610A829F062F969
:101ED000684629F080FB03A829F07DFB3E4903A852
:101EE00029F0BFFB0A2294F82010684629F019FC5B
:101EF000694603A829F0AFFC014610A829F04AF969
:101F0000684629F068FB03A829F065FB334903A85C
:101F100029F0A7FB0A2294F82110684629F001FC59
:101F2000694603A829F097FC014610A829F032F968
:101F3000684629F050FB03A829F04DFB284903A867
:101F400029F08FFB0A2294F82210684629F0E9FB59
:101F5000694603A829F07FFC014610A829F01AF968
:101F6000684629F038FB03A829F035FB1D4903A872
:101F700029F077FB0A2294F82310684629F0D1FB58
:101F8000694603A829F067FC014610A829F002F968
:101F9000684629F020FB03A829F01DFB24E000BFC0
:101FA0000801001028FE050038FE050047FE050068
:101FB0005CFE05006FFE050082FE05008EFE05003A
:101FC00099FE0500A4FE0500BAFE0500C3FE05004B
:101FD000CCFE0500D5FE0500E0FE0500EDFE050087
:101FE000F9FE050004FF0500CF4903A829F039FBDD
:101FF0000A2294F82410684629F093FB694603A846
:1020000029F029FC014610A829F0C4F8684629F0F7
:10201000E2FA03A829F0DFFAC44903A829F021FB5A
:102020000A2294F82510684629F07BFB694603A82C
:1020300029F011FC014610A829F0ACF8684629F0F7
:10204000CAFA03A829F0C7FAB94903A829F009FB7D
:102050000A2294F82610684629F063FB694603A813
:1020600029F0F9FB014610A829F094F8684629F0F8
:10207000B2FA03A829F0AFFAAE4903A829F0F1FAA1
:102080000A22A16A684629F04CFB694603A829F098
:10209000E2FB014610A829F07DF8684629F09BFA7A
:1020A00003A829F098FAA44903A829F0DAFA0A2229
:1020B00094F82C10684629F034FB694603A829F0EF
:1020C000CAFB014610A829F065F8684629F083FA92
:1020D00003A829F080FA994903A829F0C2FA0A2234
:1020E000216B684629F01DFB694603A829F0B3FB64
:1020F000014610A829F04EF8684629F06CFA03A8AA
:1021000029F069FA8E4903A829F0ABFA0A22616B1B
:10211000684629F006FB694603A829F09CFB0146A6
:1021200010A829F037F8684629F055FA03A829F0D5
:1021300052FA844903A829F094FA0A2294F8381034
:10214000684629F0EEFA694603A829F084FB0146A7
:1021500010A829F01FF8684629F03DFA03A829F0D5
:102160003AFA794903A829F07CFA0A2294F839103E
:10217000684629F0D6FA694603A829F06CFB0146A7
:1021800010A829F007F8684629F025FA03A829F0D5
:1021900022FA6E4903A829F064FA0A2294F83A1048
:1021A000684629F0BEFA694603A829F054FB0146A7
:1021B00010A828F0EFFF684629F00DFA03A829F0CF
:1021C0000AFA634903A829F04CFA0A2294F83B1052
:1021D000684629F0A6FA694603A829F03CFB0146A7
:1021E00010A828F0D7FF684629F0F5F903A829F0D0
:1021F000F2F9584903A829F034FA0A2294F83C105D
:10220000684629F08EFA694603A829F024FB0146A6
:1022100010A828F0BFFF684629F0DDF903A829F0CF
:10222000DAF94D4903A829F01CFA0A2294F83D1066
:10223000684629F076FA694603A829F00CFB0146A6
:1022400010A828F0A7FF684629F0C5F903A829F0CF
:10225000C2F9424910A828F083FF206CFEF7A2F9CA
:1022600041EC100B022110A829F0E0F83C4903A82A
:1022700029F0F7F90A2294F84410684629F051FA37
:10228000694603A829F0E7FA014610A828F082FF62
:10229000684629F0A0F903A829F09DF9314903A85F
:1022A00029F0DFF90A2294F84510684629F039FA36
:1022B000694603A829F0CFFA014610A828F06AFF62
:1022C000684629F088F903A829F085F9264903A86A
:1022D00029F0C7F90A22A16C684629F034FA694648
:1022E00003A829F0B8FA014610A828F053FF684661
:1022F00029F071F903A829F06EF91C4903A829F007
:10230000B0F90A22E16C684629F00BFA694603A885
:1023100029F0A1FA014610A828F03CFF684629F0F0
:102320005AF903A824E000BF10FF050018FF0500BC
:1023300022FF050031FF05003CFF050049FF0500B5
:1023400061FF050074FF050084FF05008CFF050098
:1023500094FF05009CFF0500A4FF0500B7FF0500E2
:10236000C7FF0500DBFF0500FAFF05000C000600B3
:1023700029F031F9CE4903A829F073F90A2294F81B
:102380005010684629F0CDF9694603A829F063FA90
:10239000014610A828F0FEFE684629F01CF903A8A3
:1023A00029F019F9C34903A829F05BF90A2294F826
:1023B0005110684629F0B5F9694603A829F04BFA8F
:1023C000014610A828F0E6FE684629F004F903A8A3
:1023D00029F001F9B84903A829F043F90A2294F831
:1023E0005210684629F09DF9694603A829F033FA8E
:1023F000014610A828F0CEFE684629F0ECF803A8A4
:1024000029F0E9F8AD4903A829F02BF90A22616DFA
:10241000684629F098F9694603A829F01CFA014694
:1024200010A828F0B7FE684629F0D5F803A829F0CF
:10243000D2F8A34910A828F093FEA06DFEF7B2F8D9
:1024400041EC100B022110A828F0F0FF9D4903A8D1
:1024500029F007F90A2294F85C10684629F061F91E
:10246000694603A829F0F7F9014610A828F092FE62
:10247000684629F0B0F803A829F0ADF8924903A8FE
:1024800029F0EFF80A22216E684629F05CF96946C6
:1024900003A829F0E0F9014610A828F07BFE684661
:1024A00029F099F803A829F096F8884903A829F09B
:1024B000D8F80A2294F86410684629F032F969467F
:1024C00003A829F0C8F9014610A828F063FE684661
:1024D00029F081F803A829F07EF87D4903A829F0A6
:1024E000C0F80A2294F86510684629F009F969468F
:1024F00003A829F0B0F9014610A828F04BFE684661
:1025000029F069F803A829F066F8724903A829F0B0
:10251000A8F80A2294F86610684629F002F969467C
:1025200003A829F098F9014610A828F033FE684660
:1025300029F051F803A829F04EF8674910A828F0AF
:102540000FFEA06EFEF72EF841EC100B022110A832
:1025500028F06CFF614903A829F083F80A2294F857
:102560006C10684629F0DDF8694603A829F073F974
:10257000014610A828F00EFE684629F02CF803A8A2
:1025800029F029F8564903A829F06BF80A2294F893
:102590006D10684629F0C5F8694603A829F05BF973
:1025A000014610A828F0F6FD684629F014F803A8A3
:1025B00029F011F84B4903A829F053F80A2294F89E
:1025C0006E10684629F0ADF8694603A829F043F972
:1025D000014610A828F0DEFD684628F0FCFF03A89D
:1025E00028F0F9FF404903A829F03BF80A2294F8A3
:1025F0006F10684629F095F8694603A829F02BF971
:10260000014610A828F0C6FD684628F0E4FF03A89C
:1026100028F0E1FF354903A829F023F80A2294F8AD
:102620007010684629F07DF8694603A829F013F96F
:10263000014610A828F0AEFD684628F0CCFF03A89C
:1026400028F0C9FF2A4903A829F00BF80A22616F74
:10265000684629F066F8694603A829F0FCF80146A7
:1026600010A828F097FD684628F0B5FF03A828F0C9
:10267000B2FF204903A828F0F4FF0A22A16F6846A0
:1026800029F04FF8694603A829F0E5F8014610A89B
:1026900028F080FD684628F09EFF03A828F09BFFE5
:1026A000154903A828F0DDFF0A22E16F684625E0FE
:1026B000240006003B000600540006005C000600F3
:1026C0007200060087000600A0000600B1000600A8
:1026D000BF000600D1000600EC0006000101060064
:1026E0001F010600340106004801060054010600DF
:1026F000610106006C0106007A01060029F011F85C
:10270000694603A829F0A7F8014610A828F042FD61
:10271000684628F060FF03A828F05DFFD24903A8AF
:1027200028F09FFF0A22D4F88010684628F0F9FFAD
:10273000694603A829F08FF8014610A828F02AFD61
:10274000684628F048FF03A828F045FFC74903A8BA
:1027500028F087FF0A2294F88410684628F0E1FFE9
:10276000694603A829F077F8014610A828F012FD61
:10277000684628F030FF03A828F02DFFBC4903A8C5
:1027800028F06FFF0A2294F88510684628F0C9FFE8
:10279000694603A829F05FF8014610A828F0FAFC62
:1027A000684628F018FF03A828F015FFB14903A8D0
:1027B00028F057FF0A2294F88610684628F0B1FFE7
:1027C000694603A829F047F8014610A828F0E2FC62
:1027D000684628F000FF03A828F0FDFEA64903A8DC
:1027E00028F03FFF0A2294F88710684628F088FFF7
:1027F000694603A829F02FF8014610A828F0CAFC62
:10280000684628F0E8FE03A828F0E5FE9B4903A8E7
:1028100028F027FF0A2294F88810684628F081FFE4
:10282000694603A829F017F8014610A828F0B2FC61
:10283000684628F0D0FE03A828F0CDFE904903A8F2
:1028400028F00FFF0A2294F88910684628F069FFE3
:10285000694603A828F0FFFF014610A828F09AFC5B
:10286000684628F0B8FE03A828F0B5FE854903A8FD
:1028700028F0F7FE0A2294F88A10684628F051FFE3
:10288000694603A828F0E7FF014610A828F082FC5B
:10289000684628F0A0FE03A828F09DFE7A4903A808
:1028A00028F0DFFE0A22D4F88C10684628F039FFA1
:1028B000694603A828F0CFFF014610A828F06AFC5B
:1028C000684628F088FE03A828F085FE6F4903A813
:1028D00028F0C7FE0A22D4F89010684628F021FF9D
:1028E000694603A828F0B7FF014610A828F052FC5B
:1028F000684628F070FE03A828F06DFE644903A81E
:1029000028F0AFFE0A22D4F89410684628F009FF98
:10291000694603A828F09FFF014610A828F03AFC5A
:10292000684628F058FE03A828F055FE594903A828
:1029300028F097FE0A2294F89810684628F0F1FED5
:10294000694603A828F087FF014610A828F022FC5A
:10295000684628F040FE03A828F03DFE4E4903A833
:1029600028F07FFE0A2294F89910684628F0D9FED4
:10297000694603A828F06FFF014610A828F00AFC5A
:10298000684628F028FE03A828F025FE434903A83E
:1029900028F067FE0A2294F89A10684628F0C1FED3
:1029A000694603A828F057FF014610A828F0F2FB5B
:1029B000684628F010FE03A828F00DFE384903A849
:1029C00028F04FFE0A2294F89B10684628F0A9FED2
:1029D000694603A828F03FFF014610A828F0DAFB5B
:1029E000684628F0F8FD03A828F0F5FD2D4903A856
:1029F00028F037FE0A2294F89C10684628F091FED1
:102A0000694603A828F027FF014610A828F0C2FB5A
:102A1000684628F0E0FD03A828F0DDFD224903A860
:102A200028F01FFE0A2294F89D10684628F079FECF
:102A3000694603A828F00FFF014610A828F0AAFB5A
:102A4000684628F0C8FD03A828F0C5FD174903A86B
:102A500028F007FE0A2294F89E10684628F061FECE
:102A6000694603A824E000BF860106009501060020
:102A7000A6010600BE010600CF010600DF01060028
:102A8000FC010600140206002E0206004A0206009F
:102A90005F020600730206008B0206009602060023
:102AA000A6020600B6020600C6020600D50206000F
:102AB00028F0D1FE014610A828F06CFB684628F0EB
:102AC0008AFD03A828F087FD524903A828F0C9FD14
:102AD0000A22D4F8A010684628F035FE694603A8FB
:102AE00028F0B9FE014610A828F054FB684628F0EB
:102AF00072FD03A828F06FFD474903A828F0B1FD37
:102B00000A2294F8A410684628F00BFE694603A830
:102B100028F0A1FE014610A828F03CFB684628F0EA
:102B20005AFD03A828F057FD3C4903A828F099FD59
:102B30000A2294F8A510684628F0F3FD694603A818
:102B400028F089FE014610A828F024FB684628F0EA
:102B500042FD03A828F03FFD314903A828F081FD7C
:102B60000A2294F8A610684628F0DBFD694603A8FF
:102B700028F071FE014610A828F00CFB684628F0EA
:102B80002AFD03A828F027FD264903A828F069FD9F
:102B90000A2294F8A710684628F0C3FD694603A8E6
:102BA00028F059FE014610A828F0F4FA684628F0EB
:102BB00012FD03A828F00FFD10A8FEF7A1FF14A82E
:102BC00018F009FAFFF745B8C1460A22002330463B
:102BD0003946FEF7E5F9303209F8012B00230A22C5
:102BE00030463946FEF7DCF9002F08BF0A2E05F102
:102BF00001050BD20BAB0022013D18F8051019702E
:102C000003F8012F002DF7D1FFF79AB806460F46BB
:102C1000DBE700BFE5020600FD0206001403060024
:102C20002B030600430306002DE9F0417349744865
:102C3000B2B0FEF7ABFC18B170497148FEF7C5FCA5
:102C400000234FF47A72CDE91F32CDE9303340F2E0
:102C500009226C4B69491E9322A8FEF741FD40B939
:102C60006948FEF7CFFF1EA8FEF744FC32B0BDE86E
:102C7000F081664B664E1C68664FDFF8B081002C11
:102C800002F04682A17823780291E17801911F2B0E
:102C9000617898BF57F82320009188BF324641469B
:102CA0000BA83BF0F9FA23781D2B02F21F82DFE814
:102CB00013F0A2001E00BF0089011503D303FB031C
:102CC000FB034D04C1041C057305E205E205B306D0
:102CD000590796079607CB07EB08F109630BD60B4C
:102CE000570C250DB30D630E820FC10F91100BA968
:102CF00005A8E56828F0B5FC05A908A828F0E5FCBA
:102D0000454908A828F0B3FD297828F0CEFD0146F2
:102D10001EA828F03FFA08A828F05DFC05A828F0B6
:102D20005AFC0BA905A828F09CFC05A908A828F0C6
:102D3000CCFC3A4908A828F09AFD01461EA828F0C4
:102D40000AFA08A828F047FC05A828F044FC68689F
:102D5000FDF728FC41EC100B02211EA828F066FBB1
:102D60000BA905A828F07DFC05A908A828F0ADFC52
:102D70002B4908A828F07BFDA96828F0A0FD014692
:102D80001EA828F007FA08A828F025FC05A828F0B6
:102D900022FC0BA905A828F064FC05A908A828F0C6
:102DA00094FC204908A828F062FDE96828F07DFD20
:102DB00001461EA828F0EEF908A828F00CFC05A88A
:102DC00028F009FC0BA905A828F04BFC05A908A8C8
:102DD00028F07BFC144908A828F049FD296928F04F
:102DE00064FD01461EA828F0D5F908A828F0F3FBD9
:102DF00005A828F0F0FB246941E700BF0AF70500A9
:102E0000581A0010A09D050021F7050018140010A5
:102E1000FBF60500EC9D050057F705005CF7050083
:102E20006FF705007BF705008AF7050047F70500F7
:102E30000BA905A8E56828F014FC05A908A828F046
:102E400044FC584908A828F012FD297828F02DFDE7
:102E500001461EA828F09EF908A828F0BCFB05A88A
:102E600028F0B9FB0BA905A828F0FBFB05A908A8C9
:102E700028F02BFC4C4908A828F0F9FC697828F0C8
:102E800014FD01461EA828F085F908A828F0A3FB28
:102E900005A828F0A0FB0BA905A828F0E2FB05A9CE
:102EA00008A828F012FC414908A828F0E0FCA978FD
:102EB00028F0FBFC01461EA828F06CF908A828F0B1
:102EC0008AFB05A828F087FB0BA905A828F0C9FBF9
:102ED00005A908A828F0F9FB354908A828F0C7FC7F
:102EE000E97828F0E2FC01461EA828F053F908A86A
:102EF00028F071FB05A828F06EFB0BA905A828F0A7
:102F0000B0FB05A908A828F0E0FB2A4908A828F08A
:102F1000AEFC297928F0BFFC01461EA828F03AF93A
:102F200008A828F058FB05A828F055FB0BA905A810
:102F300028F097FB05A908A828F0C7FB1E4908A898
:102F400028F095FCA96828F0B0FC01461EA828F0DE
:102F500021F908A828F03FFB05A828F03CFB0BA9A5
:102F600005A828F07EFB05A908A828F0AEFB1349A8
:102F700008A828F07CFCE96828F097FC01461EA808
:102F800028F008F908A828F026FB05A828F023FB5C
:102F90000BA905A828F065FB05A908A828F095FB52
:102FA000074918E757F7050099F70500A6F7050048
:102FB000B6F70500C5F70500D3F70500EBF70500E8
:102FC000F3F705000BA905A8E56828F04AFB05A959
:102FD00008A828F07AFBB24908A828F048FC29780C
:102FE00028F063FC01461EA828F0D4F808A828F0B1
:102FF000F2FA05A828F0EFFA0BA905A828F031FB92
:1030000005A908A828F061FBA64908A828F02FFC0C
:10301000697828F04AFC01461EA828F0BBF808A8E9
:1030200028F0D9FA05A828F0D6FA0BA905A828F0A7
:1030300018FB05A908A828F048FB9B4908A828F018
:1030400016FCA97828F031FC01461EA828F0A2F849
:1030500008A828F0C0FA05A828F0BDFA0BA905A811
:1030600028F0FFFA05A908A828F02FFB8F4908A827
:1030700028F0FDFBE97828F018FC01461EA828F08E
:1030800089F808A828F0A7FA05A828F0A4FA0BA93F
:1030900005A828F0E6FA05A908A828F016FB844937
:1030A00008A828F0E4FB297928F0FFFB01461EA8B8
:1030B00028F070F808A828F08EFA05A828F08BFAF6
:1030C0000BA905A828F0CDFA05A908A828F0FDFA53
:1030D000784908A828F0CBFB697928F0E6FB01467F
:1030E0001EA828F057F808A828F075FA05A828F0B7
:1030F00072FA0BA905A828F0B4FA05A908A828F0C7
:10310000E4FA6D4908A828F0B2FBA97928F0CDFBB4
:1031100001461EA828F03EF808A828F05CFA05A889
:1031200028F059FA0BA905A828F09BFA05A908A8C8
:1031300028F0CBFA614908A828F099FBE97928F032
:10314000B4FB01461EA828F025F808A828F043FA89
:1031500005A828F040FA0BA905A828F082FA05A9CD
:1031600008A828F0B2FA564908A828F080FB297A66
:1031700028F09BFB01461EA828F00CF808A828F0B0
:103180002AFA05A828F027FA0BA905A828F069FA59
:1031900005A908A828F099FA4A4908A828F067FB69
:1031A000697A28F082FB01461EA827F0F3FF08A8E1
:1031B00028F011FA05A828F00EFA0BA905A828F0A6
:1031C00050FA05A908A828F080FA3F4908A828F075
:1031D0004EFBA97A28F069FB01461EA827F0DAFF0A
:1031E00008A828F0F8F905A828F0F5F90BA905A812
:1031F00028F037FA05A908A828F067FA334908A883
:1032000028F035FBE97A28F050FB01461EA827F08C
:10321000C1FF08A828F0DFF905A828F0DCF90BA900
:1032200005A828F01EFA05A908A828F04EFA284992
:1032300008A828F01CFB297B28F037FB01461EA8B4
:1032400027F0A8FF08A828F0C6F905A828F0C3F9B8
:103250000BA905A828F005FA05A908A828F035FA51
:103260001C4908A828F003FB296928F032FB014615
:103270001EA827F08FFF08A828F0ADF905A828F0B0
:10328000AAF90BA905A828F0ECF905A908A828F0C7
:103290001CFA114908A828F0EAFA297E9FE500BF28
:1032A00057F70500BAFE0500C3FE0500FEF705004E
:1032B0000BF8050018F8050028F8050030F805009F
:1032C0003CF8050050F8050060F8050074F80500AA
:1032D0007DF8050086F8050090F805000BA905A803
:1032E000E56828F0BEF905A908A828F0EEF98D498F
:1032F00008A828F0BCFA297828F0D7FA01461EA8B9
:1033000027F048FF08A828F066F905A828F063F917
:103310000BA905A828F0A5F905A908A828F0D5F952
:10332000814908A828F0A3FA697828F0BEFA014676
:103330001EA827F02FFF08A828F04DF905A828F0AF
:103340004AF90BA905A828F08CF905A908A828F0C6
:10335000BCF9764908A828F08AFAA97828F0A5FAD5
:1033600001461EA827F016FF08A828F034F905A882
:1033700028F031F90BA905A828F073F905A908A8C8
:1033800028F0A3F96A4908A828F071FA696828F0BA
:103390008CFA01461EA827F0FDFE08A828F01BF9AC
:1033A00005A828F018F90BA905A828F05AF905A9CD
:1033B00008A828F08AF95F4908A828F058FAA968EF
:1033C00028F073FA01461EA827F0E4FE08A828F0AA
:1033D00002F905A828F0FFF80BA905A828F041F983
:1033E00005A908A828F071F9534908A828F03FFA60
:1033F000E96828F05AFA01461EA827F0CBFE08A873
:1034000028F0E9F805A828F0E6F80BA905A828F0A7
:1034100028F905A908A828F058F9484908A828F06B
:1034200026FA296928F041FA01461EA827F0B2FEC3
:1034300008A828F0D0F805A828F0CDF80BA905A811
:1034400028F00FF905A908A828F03FF93C4908A879
:1034500028F00DFA6969C2E40BA905A8E56828F00F
:1034600000F905A908A828F030F92E4908A828F085
:10347000FEF9297828F019FA01461EA827F08AFEDD
:1034800008A828F0A8F805A828F0A5F80BA905A811
:1034900028F0E7F805A908A828F017F9294908A88D
:1034A00028F0E5F969789AE40BA905A8E56828F001
:1034B000D8F805A908A828F008F91A4908A828F09A
:1034C000D6F9297828F0F1F901461EA827F062FE06
:1034D00008A828F080F805A828F07DF80BA905A811
:1034E00028F0BFF805A908A828F0EFF8164908A8A1
:1034F00028F0BDF9697828F0D8F901461EA827F010
:1035000049FE08A828F067F805A828F064F80BA978
:1035100005A828F0A6F805A908A828F0D6F80949B2
:103520001FE100BF57F705009CF80500AAF8050049
:10353000BBF80500C7F80500D4F80500EEF8050053
:1035400006F9050012F9050022F905000BA905A8E6
:10355000E56828F086F805A908A828F0B6F8844997
:1035600008A828F084F9297828F09FF901461EA8B8
:1035700027F010FE08A828F02EF805A828F02BF850
:103580000BA905A828F06DF805A908A828F09DF852
:10359000784908A828F06BF9697828F086F901467F
:1035A0001EA827F0F7FD08A828F015F805A828F0B0
:1035B00012F80BA905A828F054F805A908A828F0C6
:1035C00084F86D4908A828F052F9A97828F06DF917
:1035D00001461EA827F0DEFD08A827F0FCFF05A87D
:1035E00027F0F9FF0BA905A828F03BF805A908A8C2
:1035F00028F06BF8614908A828F039F9E97828F033
:1036000054F901461EA827F0C5FD08A827F0E3FFDE
:1036100005A827F0E0FF0BA905A828F022F805A9C6
:1036200008A828F052F8564908A828F020F9297966
:10363000FFF7D5BB0BA905A8E56828F012F805A986
:1036400008A828F042F84A4908A828F010F9297873
:1036500028F02BF901461EA827F09CFD08A827F0AA
:10366000BAFF05A827F0B7FF0BA905A827F0F9FFB7
:1036700005A908A828F029F8424908A828F0F7F871
:10368000697828F012F901461EA827F083FD08A8E2
:1036900027F0A1FF05A827F09EFF0BA905A827F09A
:1036A000E0FF05A908A828F010F8374908A828F075
:1036B000DEF8A97828F0F9F801461EA827F06AFD7F
:1036C00008A827F088FF05A827F085FF0BA905A803
:1036D00027F0C7FF05A908A827F0F7FF2B4908A87E
:1036E00028F0C5F8E978FFF77ABB0BA905A8E568CB
:1036F00027F0B7FF05A908A827F0E7FF1C4908A88D
:1037000028F0B5F8297828F0D0F801461EA827F04F
:1037100041FD08A827F05FFF05A827F05CFF0BA973
:1037200005A827F09EFF05A908A827F0CEFF184995
:1037300008A828F09CF8697828F0B7F801461EA878
:1037400027F028FD08A827F046FF05A827F043FF2B
:103750000BA905A827F085FF05A908A827F0B5FF44
:103760000C4908A828F083F8A978FFF738BB00BFF8
:1037700057F705002FF9050022F905000BF80500A1
:1037800012F905003CF9050044F905004CF9050063
:1037900058F9050061F905000BA905A8E56827F0AF
:1037A00060FF05A908A827F090FF904908A828F015
:1037B0005EF8297828F079F801461EA827F0EAFC7F
:1037C00008A827F008FF05A827F005FF0BA905A802
:1037D00027F047FF05A908A827F077FF844908A824
:1037E00028F045F8697828F060F801461EA827F00F
:1037F000D1FC08A827F0EFFE05A827F0ECFE0BA9E6
:1038000005A827F02EFF05A908A827F05EFF794933
:1038100008A828F02CF8A97828F047F801461EA837
:1038200027F0B8FC08A827F0D6FE05A827F0D3FE9D
:103830000BA905A827F015FF05A908A827F045FF43
:103840006D4908A828F013F8E97828F02EF8014609
:103850001EA827F09FFC08A827F0BDFE05A827F0AA
:10386000BAFE0BA905A827F0FCFE05A908A827F0B9
:103870002CFF6249D8E60BA905A8E56827F0F1FE00
:1038800005A908A827F021FF584908A827F0EFFF4D
:10389000297828F00AF801461EA827F07BFC08A822
:1038A00027F099FE05A827F096FE0BA905A827F09A
:1038B000D8FE05A908A827F008FF4E4908A827F058
:1038C000D6FF697827F0F1FF01461EA827F062FCB9
:1038D00008A827F080FE05A827F07DFE0BA905A803
:1038E00027F0BFFE05A908A827F0EFFE444908A865
:1038F00027F0BDFFA97827F0D8FF01461EA827F0C2
:1039000049FC08A827F067FE05A827F064FE0BA96C
:1039100005A827F0A6FE05A908A827F0D6FE394974
:1039200008A827F0A4FFE97827F0BFFF01461EA8EA
:1039300027F030FC08A827F04EFE05A827F04BFE24
:103940000BA905A827F08DFE05A908A827F0BDFE44
:103950002D4908A827F08BFF696827F0A6FF0146CC
:103960001EA827F017FC08A827F035FE05A827F0A9
:1039700032FE0BA905A827F074FE05A908A827F0B8
:10398000A4FE224908A827F072FFA96827F08DFF3E
:1039900001461EA827F0FEFB08A827F01CFE05A87C
:1039A00027F019FE0BA905A827F05BFE05A908A8BA
:1039B00027F08BFE164908A827F059FFE96827F081
:1039C00074FF01461EA827F0E5FB08A827F003FEB8
:1039D00005A827F000FE0BA905A827F042FE05A9BF
:1039E00008A827F072FE0B49FFF7F5B957F7050055
:1039F00058F9050061F9050069F9050070F905003D
:103A00002FF9050012F905007CF9050091F9050070
:103A1000A7F90500B8F905000BA905A8E56827F086
:103A200020FE05A908A827F050FE7F4908A827F026
:103A30001EFF297827F039FF01461EA827F0AAFBB0
:103A400008A827F0C8FD05A827F0C5FD0BA905A803
:103A500027F007FE05A908A827F037FE734908A834
:103A600027F005FF697827F020FF01461EA827F000
:103A700091FB08A827F0AFFD05A827F0ACFD0BA926
:103A800005A827F0EEFD05A908A827F01EFE684945
:103A900008A827F0ECFEA97827F007FF01461EA82A
:103AA00027F078FB08A827F096FD05A827F093FDDE
:103AB0000BA905A827F0D5FD05A908A827F005FE44
:103AC0005C4908A827F0D3FEE97827F0EEFE01460E
:103AD0001EA827F05FFB08A827F07DFD05A827F0AA
:103AE0007AFD0BA905A827F0BCFD05A908A827F0B9
:103AF000ECFD514908A827F0BAFE297927F0D5FE38
:103B000001461EA827F046FB08A827F064FD05A87B
:103B100027F061FD0BA905A827F0A3FD05A908A8BA
:103B200027F0D3FD454908A827F0A1FE697927F0C1
:103B3000BCFE01461EA827F02DFB08A827F04BFD70
:103B400005A827F048FD0BA905A827F08AFD05A9BF
:103B500008A827F0BAFD3A4908A827F088FEA979F5
:103B6000FFF73DB90BA905A8E56827F07AFD05A97F
:103B700008A827F0AAFD2C4908A827F078FE297884
:103B800027F093FE01461EA827F004FB08A827F0A3
:103B900022FD05A827F01FFD0BA905A827F061FD50
:103BA00005A908A827F091FD224908A827F05FFE83
:103BB000697827F07AFE01461EA827F0EBFA08A8DC
:103BC00027F009FD05A827F006FD0BA905A827F099
:103BD00048FD05A908A827F078FD1A49C1E50BA9F9
:103BE00005A8E56827F03DFD05A908A827F06DFDAB
:103BF0000D4908A827F03BFE297827F056FE01461C
:103C00001EA827F0C7FA08A827F0E5FC05A827F0AA
:103C1000E2FC0BA905A827F024FD05A908A827F0B8
:103C200054FD024963E400BF57F705002FF9050072
:103C300022F9050012F90500CBF90500D9F90500B4
:103C4000EDF9050001FA05000BA905A8E56827F0C4
:103C500008FD05A908A827F038FD804908A827F025
:103C600006FE297827F021FE01461EA827F092FAC9
:103C700008A827F0B0FC05A827F0ADFC0BA905A803
:103C800027F0EFFC05A908A827F01FFD744908A834
:103C900027F0EDFD697827F008FE01461EA827F001
:103CA00079FA08A827F097FC05A827F094FC0BA93F
:103CB00005A827F0D6FC05A908A827F006FD694944
:103CC00008A827F0D4FDA97827F0EFFD01461EA82B
:103CD00027F060FA08A827F07EFC05A827F07BFCF7
:103CE0000BA905A827F0BDFC05A908A827F0EDFC45
:103CF0005D4908A827F0BBFDE97827F0D6FD01460D
:103D00001EA827F047FA08A827F065FC05A827F0A9
:103D100062FC0BA905A827F0A4FC05A908A827F0B8
:103D2000D4FC524908A827F0A2FD297927F0BDFD4F
:103D300001461EA827F02EFA08A827F04CFC05A87B
:103D400027F049FC0BA905A827F08BFC05A908A8BA
:103D500027F0BBFC464908A827F089FD697927F0C0
:103D6000A4FD01461EA827F015FA08A827F033FC89
:103D700005A827F030FC0BA905A827F072FC05A9BF
:103D800008A827F0A2FC3B4908A827F070FDA979F4
:103D900027F08BFD01461EA827F0FCF908A827F0A4
:103DA0001AFC05A827F017FC0BA905A827F059FC59
:103DB00005A908A827F089FC2F4908A827F057FD76
:103DC000E97927F072FD01461EA827F0E3F908A85B
:103DD00027F001FC05A827F0FEFB0BA905A827F09A
:103DE00040FC05A908A827F070FC244908A827F082
:103DF0003EFD297A27F059FD01461EA827F0CAF991
:103E000008A827F0E8FB05A827F0E5FB0BA905A803
:103E100027F027FC05A908A827F057FC184908A88F
:103E200027F025FD697A27F040FD01461EA827F0FE
:103E3000B1F908A827F0CFFB05A827F0CCFB0BA908
:103E400005A827F00EFC05A908A827F03EFC0D499F
:103E500008A827F00CFDA97AFEF7C1BF57F70500A7
:103E600018FA050027FA050036FA05004EFA050093
:103E70005DFA05006EFA050080FA050090FA05006B
:103E8000B0FA0500D1FA05000BA905A8E56827F0EE
:103E9000E8FB05A908A827F018FC744908A827F032
:103EA000E6FC297827F001FD01461EA827F072F9EB
:103EB00008A827F090FB05A827F08DFB0BA905A803
:103EC00027F0CFFB05A908A827F0FFFB684908A841
:103ED00027F0CDFC696827F0E8FC01461EA827F012
:103EE00059F908A827F077FB05A827F074FB0BA960
:103EF00005A827F0B6FB05A908A827F0E6FB5D4951
:103F000008A827F0B4FCA96827F0CFFC01461EA83A
:103F100027F040F908A827F05EFB05A827F05BFB17
:103F20000BA905A827F09DFB05A908A827F0CDFB44
:103F3000514908A827F09BFC297B27F0B6FC0146D5
:103F40001EA827F027F908A827F045FB05A827F0A9
:103F500042FB0BA905A827F084FB05A908A827F0B8
:103F6000B4FB464908A827F082FC697B27F09DFC3A
:103F700001461EA827F00EF908A827F02CFB05A87B
:103F800027F029FB0BA905A827F06BFB05A908A8BA
:103F900027F09BFB3A4908A827F069FCA97B27F08A
:103FA00084FC01461EA827F0F5F808A827F013FBAB
:103FB00005A827F010FB0BA905A827F052FB05A9BF
:103FC00008A827F082FB2F4908A827F050FCE97BBE
:103FD00027F06BFC01461EA827F0DCF808A827F0A4
:103FE000FAFA05A827F0F7FA0BA905A827F039FB7C
:103FF00005A908A827F069FB234908A827F037FC82
:10400000297C27F052FC01461EA827F0C3F808A817
:1040100027F0E1FA05A827F0DEFA0BA905A827F09A
:1040200020FB05A908A827F050FB184908A827F08D
:104030001EFC697C27F039FC01461EA827F0AAF86F
:1040400008A827F0C8FA05A827F0C5FA0BA905A803
:1040500027F007FB05A908A827F037FB0C4908A89B
:1040600027F005FCA97CFEF7BABE00BF57F7050094
:10407000F0FA0500FCFA050008FB050010FB05003E
:1040800017FB05001FFB050028FB050031FB0500A1
:1040900039FB05000BA905A8E56827F0E2FA05A998
:1040A00008A827F012FBA64908A827F0E0FB29780A
:1040B00027F0FBFB01461EA827F06CF808A827F0A4
:1040C0008AFA05A827F087FA0BA905A827F0C9FAEC
:1040D00005A908A827F0F9FA9A4908A827F0C7FB0C
:1040E000697827F0E2FB01461EA827F053F808A8DC
:1040F00027F071FA05A827F06EFA0BA905A827F09A
:10410000B0FA05A908A827F0E0FA8F4908A827F017
:10411000AEFBA97827F0C9FB01461EA827F03AF8A4
:1041200008A827F058FA05A827F055FA0BA905A802
:1041300027F097FA05A908A827F0C7FA834908A825
:1041400027F095FBE97827F0B0FB01461EA827F081
:1041500021F808A827F03FFA05A827F03CFA0BA998
:1041600005A827F07EFA05A908A827F0AEFA784935
:1041700008A827F07CFB297927F097FB01461EA8A9
:1041800027F008F808A827F026FA05A827F023FA50
:104190000BA905A827F065FA05A908A827F095FA44
:1041A0006C4908A827F063FB697927F07EFB01467C
:1041B0001EA826F0EFFF08A827F00DFA05A827F0A3
:1041C0000AFA0BA905A827F04CFA05A908A827F0B8
:1041D0007CFA614908A827F04AFBA97927F065FB1A
:1041E00001461EA826F0D6FF08A827F0F4F905A876
:1041F00027F0F1F90BA905A827F033FA05A908A8BB
:1042000027F063FA554908A827F031FBE97927F030
:104210004CFB01461EA826F0BDFF08A827F0DBF9DD
:1042200005A827F0D8F90BA905A827F01AFA05A9BF
:1042300008A827F04AFA4A4908A827F018FB297A63
:1042400027F033FB01461EA826F0A4FF08A827F09C
:10425000C2F905A827F0BFF90BA905A827F001FAB4
:1042600005A908A827F031FA3E4908A827F0FFFA67
:10427000697A27F01AFB01461EA826F08BFF08A8D2
:1042800027F0A9F905A827F0A6F90BA905A827F09A
:10429000E8F905A908A827F018FA334908A827F073
:1042A000E6FAA97A27F001FB01461EA826F072FF64
:1042B00008A827F090F905A827F08DF90BA905A803
:1042C00027F0CFF905A908A827F0FFF9274908A882
:1042D00027F0CDFAE97A27F0E8FA01461EA826F081
:1042E00059FF08A827F077F905A827F074F90BA95A
:1042F00005A827F0B6F905A908A827F0E6F91C4992
:1043000008A827F0B4FA297B27F0CFFA01461EA8A7
:1043100026F040FF08A827F05EF905A827F05BF912
:104320000BA905A827F09DF905A908A827F0CDF944
:10433000104908A827F09BFA697BFEF750BD00BF23
:1043400057F7050041FB050049FB050052FB05003E
:104350005BFB050064FB05006CFB050075FB0500BD
:104360007EFB050087FB050090FB0500A1FB050017
:10437000AEFB0500BBFB05000BA905A8E56827F00F
:1043800070F905A908A827F0A0F96D4908A827F039
:104390006EFA297827F089FA01461EA826F0FAFE5F
:1043A00008A827F018F905A827F015F90BA905A802
:1043B00027F057F905A908A827F087F9614908A847
:1043C00027F055FA697827F070FA01461EA826F002
:1043D000E1FE08A827F0FFF805A827F0FCF80BA9D4
:1043E00005A827F03EF905A908A827F06EF9564957
:1043F00008A827F03CFA01461EA826F0ACFE08A843
:1044000027F0E9F805A827F0E6F86868FCF7CAF88D
:1044100041EC100B02211EA827F008F80BA905A8F3
:1044200027F01FF905A908A827F04FF9474908A860
:1044300027F01DFA01461EA826F08DFE08A827F0D9
:10444000CAF805A827F0C7F8A868FCF7ABF841EC54
:10445000100B02211EA826F0E9FFFEF7CCBC0BA929
:1044600005A8E56827F0FDF805A908A827F02DF9AB
:10447000334908A827F0FBF9297827F016FA0146F6
:104480001EA826F087FE08A827F0A5F805A827F0A3
:10449000A2F80BA905A827F0E4F805A908A827F0B9
:1044A00014F92B4908A827F0E2F9697827F0FDF9FB
:1044B00001461EA826F06EFE08A827F08CF805A875
:1044C00027F089F80BA905A827F0CBF805A908A8BB
:1044D00027F0FBF81F4908A827F0C9F9A97827F0A9
:1044E000E4F901461EA826F055FE08A827F073F847
:1044F00005A827F070F80BA905A827F0B2F805A9C0
:1045000008A827F0E2F8144908A827F0B0F9E978DC
:1045100027F0CBF901461EA826F03CFE08A827F09C
:104520005AF805A827F057F80BA905A827F099F81D
:1045300005A908A827F0C9F80849FFF775B800BF12
:1045400057F70500C9FB0500D1FB050042480600EE
:1045500022F9050012F90500D5FB0500DFFB050077
:104560000BA905A8E56827F07CF805A908A827F09D
:10457000ACF89D4908A827F07AF9297827F095F931
:1045800001461EA826F006FE08A827F024F805A874
:1045900027F021F80BA905A827F063F805A908A8BA
:1045A00027F093F8914908A827F061F9697827F076
:1045B0007CF901461EA826F0EDFD08A827F00BF8AF
:1045C00005A827F008F80BA905A827F04AF805A9BF
:1045D00008A827F07AF8864908A827F048F9A978AA
:1045E00027F063F901461EA826F0D4FD08A826F09E
:1045F000F2FF05A826F0EFFF0BA905A827F031F878
:1046000005A908A827F061F87A4908A827F02FF92A
:10461000E97827F04AF901461EA826F0BBFD08A854
:1046200026F0D9FF05A826F0D6FF0BA905A827F08C
:1046300018F805A908A827F048F86F4908A827F036
:1046400016F9297927F031F901461EA826F0A2FDB6
:1046500008A826F0C0FF05A826F0BDFF0BA905A8F5
:1046600026F0FFFF05A908A827F02FF8634908A83E
:1046700027F0FDF8697927F00EF901461EA826F00B
:1046800089FD08A826F0A7FF05A826F0A4FF0BA91E
:1046900005A826F0E6FF05A908A827F016F858494E
:1046A00008A827F0E4F801461EA826F054FD08A843
:1046B00026F091FF05A826F08EFFA868FBF772FF91
:1046C00041EC100B02211EA826F0B0FE0BA905A894
:1046D00026F0C7FF05A908A826F0F7FF494908A852
:1046E00027F0C5F801461EA826F035FD08A826F0DB
:1046F00072FF05A826F06FFFE868A6E60BA905A8DB
:10470000E56826F0AEFF05A908A826F0DEFF3649C9
:1047100008A827F0ACF8297827F0C7F801461EA8AA
:1047200026F038FD08A826F056FF05A826F053FF0E
:104730000BA905A826F095FF05A908A826F0C5FF36
:10474000314908A827F093F8697827F0AEF80146B8
:104750001EA826F01FFD08A826F03DFF05A826F09C
:104760003AFF0BA905A826F07CFF05A908A826F0AA
:10477000ACFF264908A827F07AF8A97827F095F821
:1047800001461EA826F006FD08A826F024FF05A86D
:1047900026F021FF0BA905A826F063FF05A908A8AC
:1047A00026F093FF1A4908A827F061F8E97827F066
:1047B0007CF801461EA826F0EDFC08A826F00BFFA9
:1047C00005A826F008FF0BA905A826F04AFF05A9B1
:1047D00008A826F07AFF0F4908A827F048F8697959
:1047E00027F059F8FEF7FDBA57F7050022F9050042
:1047F00012F90500EAFB05000BF80500F4FB0500C3
:10480000FBFB050009FC050015FC050021FC05006B
:104810002DFC05003FFC05000BA905A8E56826F066
:1048200020FF05A908A826F050FF4C4908A827F04A
:104830001EF8297827F039F801461EA826F0AAFCB0
:1048400008A826F0C8FE05A826F0C5FE0BA905A8F5
:1048500026F007FF05A908A826F037FF404908A859
:1048600027F005F8697827F020F801461EA826F001
:1048700091FC08A826F0AFFE05A826F0ACFE0BA917
:1048800005A826F0EEFE05A908A826F01EFF35496A
:1048900008A826F0ECFFA97827F007F801461EA823
:1048A00026F078FC08A826F096FE05A826F093FED0
:1048B0000BA905A826F0D5FE05A908A826F005FF36
:1048C000294908A826F0D3FFE97826F0EEFF014633
:1048D0001EA826F05FFC08A826F07DFE05A826F09D
:1048E0007AFE0BA905A826F0BCFE05A908A826F0AB
:1048F000ECFE1E4908A826F0BAFF297926F0D5FF5C
:1049000001461EA826F046FC08A826F064FE05A86D
:1049100026F061FE0BA905A826F0A3FE05A908A8AC
:1049200026F0D3FE124908A826F0A1FF697926F0E7
:10493000BCFF01461EA826F02DFC08A826F04BFE61
:1049400005A826F048FE0BA905A826F08AFE05A9B1
:1049500008A826F0BAFE0749FFF7FEB857F705008A
:104960004EFC05005CFC05006BFC050076FC0500B8
:1049700081FC050094FC05000BA905A8E56826F05C
:1049800070FE05A908A826F0A0FE9D4908A826F0FB
:104990006EFF297826F089FF01461EA826F0FAFB53
:1049A00008A826F018FE05A826F015FE0BA905A8F4
:1049B00026F057FE05A908A826F087FE914908A809
:1049C00026F055FF697826F070FF01461EA826F0F4
:1049D000E1FB08A826F0FFFD05A826F0FCFD0BA9C9
:1049E00005A826F03EFE05A908A826F06EFE864919
:1049F00008A826F03CFFA97826F057FF01461EA81C
:104A000026F0C8FB08A826F0E6FD05A826F0E3FD81
:104A10000BA905A826F025FE05A908A826F055FE35
:104A20007A4908A826F023FFE97826F03EFF0146E0
:104A30001EA826F0AFFB08A826F0CDFD05A826F09D
:104A4000CAFD0BA905A826F00CFE05A908A826F0AA
:104A50003CFE6F4908A826F00AFF696826F025FF8A
:104A600001461EA826F096FB08A826F0B4FD05A86E
:104A700026F0B1FD0BA905A826F0F3FD05A908A8AD
:104A800026F023FE634908A826F0F1FE696926F0A6
:104A90000CFF01461EA826F07DFB08A826F09BFD12
:104AA00005A826F098FD0BA905A826F0DAFD05A9B2
:104AB00008A826F00AFE584908A826F0D8FEA968DA
:104AC00026F0F3FE01461EA826F064FB08A826F097
:104AD00082FD05A826F07FFD0BA905A826F0C1FDE3
:104AE00005A908A826F0F1FD4C4908A826F0BFFE4C
:104AF000A96926F0DAFE01461EA826F04BFB08A89D
:104B000026F069FD05A826F066FD0BA905A826F08C
:104B1000A8FD05A908A826F0D8FD414908A826F057
:104B2000A6FE297B26F0C1FE01461EA826F032FB18
:104B300008A826F050FD05A826F04DFD0BA905A8F4
:104B400026F08FFD05A908A826F0BFFD354908A865
:104B500026F08DFE297F26F0A8FE01461EA826F02D
:104B600019FB08A826F037FD05A826F034FD0BA98F
:104B700005A826F076FD05A908A826F0A6FD2A4975
:104B800008A826F074FE296A26F08FFE01461EA8AA
:104B900026F000FB08A826F01EFD05A826F01BFD48
:104BA0000BA905A826F05DFD05A908A826F08DFD36
:104BB0001E49FEF710B90BA905A8E56826F051FDBE
:104BC00005A908A826F081FD0D4908A826F04FFE8A
:104BD000297826F06AFE01461EA826F0DBFA08A80E
:104BE00026F0F9FC05A826F0F6FC0BA905A826F08E
:104BF00038FD05A908A826F068FD0D49FEF777BC29
:104C000057F705009FFC0500A9FC0500B2FC050054
:104C1000C0FC0500CCFC0500D7FC0500E2FC05004B
:104C2000ECFC0500FCFC05000BFD050016FD050075
:104C300028FD05000BA905A8E56826F012FD05A9C9
:104C400008A826F042FD5B4908A826F010FE297846
:104C500026F02BFE01461EA826F09CFA08A826F096
:104C6000BAFC05A826F0B7FC0BA905A826F0F9FCAC
:104C700005A908A826F029FD4F4908A826F0F7FD48
:104C8000697826F012FE01461EA826F083FA08A8CD
:104C900026F0A1FC05A826F09EFC0BA905A826F08D
:104CA000E0FC05A908A826F010FD444908A826F054
:104CB000DEFDA97826F0F9FD01461EA826F06AFA65
:104CC00008A826F088FC05A826F085FC0BA905A8F5
:104CD00026F0C7FC05A908A826F0F7FC384908A863
:104CE00026F0C5FDE97826F0E0FD01461EA826F075
:104CF00051FA08A826F06FFC05A826F06CFC0BA959
:104D000005A826F0AEFC05A908A826F0DEFC2D4972
:104D100008A826F0ACFD297926F0C7FD01461EA89B
:104D200026F038FA08A826F056FC05A826F053FC11
:104D30000BA905A826F095FC05A908A826F0C5FC36
:104D4000214908A826F093FD697926F0AEFD0146B9
:104D50001EA826F01FFA08A826F03DFC05A826F09C
:104D60003AFC0BA905A826F07CFC05A908A826F0AA
:104D7000ACFC164908A826F07AFDA97926F095FD25
:104D800001461EA826F006FA08A826F024FC05A86D
:104D900026F021FC0BA905A826F063FC05A908A8AC
:104DA00026F093FC0A4908A826F061FDE979FEF790
:104DB00016B800BF57F705009FFC0500B2FC0500C0
:104DC00030FD050039FD050043FD05004DFD0500E2
:104DD00057FD05000BA905A8E56826F042FC05A9CA
:104DE00008A826F072FCB24908A826F040FD2978F0
:104DF00026F05BFD01461EA826F0CCF908A826F097
:104E0000EAFB05A826F0E7FB0BA905A826F029FC7C
:104E100005A908A826F059FCA64908A826F027FDF0
:104E2000697826F042FD01461EA826F0B3F908A8CD
:104E300026F0D1FB05A826F0CEFB0BA905A826F08D
:104E400010FC05A908A826F040FC9B4908A826F0FC
:104E50000EFDA97826F029FD01461EA826F09AF934
:104E600008A826F0B8FB05A826F0B5FB0BA905A8F5
:104E700026F0F7FB05A908A826F027FC8F4908A80B
:104E800026F0F5FCE97826F010FD01461EA826F074
:104E900081F908A826F09FFB05A826F09CFB0BA92A
:104EA00005A826F0DEFB05A908A826F00EFC84491B
:104EB00008A826F0DCFC297926F0F7FC01461EA89C
:104EC00026F068F908A826F086FB05A826F083FBE3
:104ED0000BA905A826F0C5FB05A908A826F0F5FB37
:104EE000784908A826F0C3FC697926F0DEFC014663
:104EF0001EA826F04FF908A826F06DFB05A826F09D
:104F00006AFB0BA905A826F0ACFB05A908A826F0AA
:104F1000DCFB6D4908A826F0AAFCA97926F0C5FC9F
:104F200001461EA826F036F908A826F054FB05A86D
:104F300026F051FB0BA905A826F093FB05A908A8AC
:104F400026F0C3FB614908A826F091FCE97926F018
:104F5000ACFC01461EA826F01DF908A826F03BFB74
:104F600005A826F038FB0BA905A826F07AFB05A9B1
:104F700008A826F0AAFB564908A826F078FC297A4A
:104F800026F093FC01461EA826F004F908A826F096
:104F900022FB05A826F01FFB0BA905A826F061FB44
:104FA00005A908A826F091FB4A4908A826F05FFC4D
:104FB000697A26F07AFC01461EA826F0EBF808A8CC
:104FC00026F009FB05A826F006FB0BA905A826F08C
:104FD00048FB05A908A826F078FB3F4908A826F059
:104FE00046FCA97A26F061FC01461EA826F0D2F8FC
:104FF00008A826F0F0FA05A826F0EDFA0BA905A8F6
:1050000026F02FFB05A908A826F05FFB334908A866
:1050100026F02DFCE97A26F048FC01461EA826F071
:10502000B9F808A826F0D7FA05A826F0D4FA0BA9F3
:1050300005A826F016FB05A908A826F046FB284976
:1050400008A826F014FC297B26F02FFC01461EA898
:1050500026F0A0F808A826F0BEFA05A826F0BBFAAC
:105060000BA905A826F0FDFA05A908A826F02DFB36
:105070001C4908A826F0FBFB697B26F016FC0146BC
:105080001EA826F087F808A826F0A5FA05A826F09D
:10509000A2FA0BA905A826F0E4FA05A908A826F0AB
:1050A00014FB114908A826F0E2FBA97BFDF797BE87
:1050B00057F7050062FD050069FD050070FD05005C
:1050C00077FD05007EFD050087FD050090FD0500CC
:1050D00099FD0500A2FD0500AAFD0500B1FD050032
:1050E000B8FD0500BFFD0500C6FD05000BAA0C4973
:1050F0000C4827F00DF80C4B93F88530002B3DF44D
:105100007AAE0BAA0649094827F002F8FDF773BEEC
:105110001EA8FCF7F5FC22A815F05DFFFDF7A3BD66
:10512000CEFD0500A82D001008010010202C001055
:105130002DE9F04F7F4DADF2044D00238DF8003086
:1051400095F824308046C3B12B7F2BB14FF4806299
:105150007949684642F086FC6B7F2BB14FF4806240
:105160007649684642F07EFC95F884302BB14FF4C6
:1051700080627349684642F075FC95F839302BB16E
:105180004FF480626F49684642F06CFC95F83A3003
:105190002BB14FF480626C49684642F063FC95F88D
:1051A0003B302BB14FF480626849684642F05AFCAC
:1051B00095F83C302BB14FF480626549684642F067
:1051C00051FC95F852302BB14FF48062614968462A
:1051D00042F048FC604FFB783BB395F89930002BC8
:1051E00055D195F820302BB14FF480625B49684669
:1051F00042F038FC95F821302BB14FF480625849C9
:10520000684642F02FFC95F822302BB14FF48062B3
:105210005449684642F026FC95F823302BB1524998
:105220004FF48062684642F01DFC504BDFF86491F9
:105230001C68DFF864A1DFF864B1002C00F09384EF
:105240002379002B58D022781D2A00F27C84DFE8D5
:1052500012F053004A005500A7000B0120012D0158
:10526000420157017C019901AE01D301D30125020E
:1052700039024E024E025D028202BF022C03390344
:105280004603A903C603FB0318042504340495F858
:105290009A302BB14FF480623549684642F0E2FB08
:1052A00095F89B302BB14FF480623249684642F04A
:1052B000D9FB95F89C302BB14FF480622E4968469B
:1052C00042F0D0FB95F89D302BB14FF480622B4912
:1052D000684642F0C7FB95F89E30002BA5D04FF4EE
:1052E000806227499EE7E3681B782BB125494FF47C
:1052F0008062684642F0B6FB24699EE7E668337830
:10530000002BF9D073782BB14FF480621E496846A8
:1053100042F0A8FBB3782BB14FF480621B4968467A
:1053200042F0A0FBF378002BE6D04FF480621849DE
:10533000DFE700BF08010010B3BC0500BCBC0500DE
:10534000C5BC0500CDBC0500D8BC0500E3BC05000C
:10535000EEBC0500F9BC050009170010FEBC0500F5
:1053600008BD050012BD05001CBD05001814001085
:1053700026BD050036BD05004EBD050061BD05001A
:1053800074BD050087BD050098BD0500A5BD0500DD
:10539000C3BD05004EC00500A82D0010202C001034
:1053A000E6683378002BA7D073782BB14FF4806276
:1053B0009D49684642F056FBB3782BB14FF48062AA
:1053C0009A49684642F04EFBF3782BB14FF4806265
:1053D0009749684642F046FB33792BB14FF480621F
:1053E0009449684642F03EFB73792BB14FF48062DA
:1053F0009149684642F036FBB3792BB14FF4806295
:105400008E49684642F02EFBF3792BB14FF480624F
:105410008B49684642F026FB337A2BB14FF4806209
:105420008849684642F01EFB737A2BB14FF48062C4
:105430008549684642F016FBB37A2BB14FF480627F
:105440008249684642F00EFBF37A2BB14FF480623A
:105450007F49684642F006FB337B002B3FF44CAF9C
:105460004FF480627B4944E7E6683378002B3FF4D1
:1054700043AF73782BB14FF480627749684642F0AE
:10548000F1FAB378002B3FF437AF4FF480627349E1
:105490002FE7E3681A78002A3FF42EAF5B78002BE1
:1054A0003FF42AAF4FF480626D4922E7E668337813
:1054B000002B3FF421AF73782BB14FF48062694920
:1054C000684642F0CFFAB378002B3FF415AF4FF4A3
:1054D000806265490DE7E6683378002B3FF40CAF36
:1054E00073782BB14FF480625E49684642F0BAFA95
:1054F000B378002B3FF400AF4FF480625B49F8E6CD
:10550000E6683378002B3FF4F7AEB3782BB14FF455
:1055100080625749684642F0A5FA73782BB14FF480
:1055200080625449684642F09DFAF3782BB14FF4FB
:1055300080625149684642F095FA3379002B3FF476
:10554000DBAE4FF480624D49D3E6E6683378002B3A
:105550003FF4D2AE73782BB14FF48062484968466D
:1055600042F080FAB3782BB14FF480624549684627
:1055700042F078FAF378002B3FF4BEAE4FF480622D
:105580004149B6E6E6683378002B3FF4B5AE737850
:105590002BB14FF480623D49684642F063FAB3781C
:1055A000002B3FF4A9AE4FF480623949A1E6E668CA
:1055B0003378002B3FF4A0AE73782BB14FF48062A8
:1055C0003249684642F04EFAB3782BB14FF480620C
:1055D0002F49684642F046FAF3782BB14FF48062C7
:1055E0002C49684642F03EFA3379002B3FF484AEF2
:1055F0004FF4806228497CE6E6683378002B3FF45C
:105600007BAE73782BB14FF480622149684642F03B
:1056100029FAB3782BB117494FF48062684642F0FB
:1056200021FAF3783BE700BFD8BD0500E2BD0500D5
:10563000ECBD0500FEBD050007BE050013BE05005C
:105640001CBE050029BE05003EBE05004FBE05007C
:105650005CBE050066BE050070BE05007FBE05008D
:10566000B5BE05008CBE05009ABE0500ACBE0500A7
:10567000BBBE0500C8BE0500D4BE0500E0BE0500E7
:10568000EBBE0500F0BE0500F5BE0500FEBE050040
:1056900008BF050011BF050015BF0500E668337897
:1056A000002B3FF429AE73782BB14FF480629E49F2
:1056B000684642F0D7F9B378002BB2D04FF480623D
:1056C0009A49ABE7E6683378002B3FF415AE737860
:1056D0002BB14FF480629649684642F0C3F9B37823
:1056E000002B3FF409AE4FF48062924901E6E66870
:1056F0003378002B3FF400AE73782BB18A494FF416
:105700008062684642F0AEF9B378C8E6E66833785E
:10571000002B3FF4F1AD73782BB14FF480628649D2
:10572000684642F09FF9B3782BB14FF48062834909
:10573000684642F097F9F3782BB14FF480627E49C6
:10574000684642F08FF93379002B3FF4D5AD4FF422
:1057500080627B49CDE5E6683378002B3FF4CCAD21
:10576000337B2BB14FF480627649684642F07AF978
:10577000737B2BB14FF480627349684642F072F933
:10578000B37B2BB14FF480627049684642F06AF9EE
:10579000F37B2BB14FF480626D49684642F062F9A9
:1057A000337C2BB14FF480626A49684642F05AF963
:1057B000737C2BB14FF480626749684642F052F91E
:1057C000B37C002B3FF498AD4FF48062634990E5C1
:1057D000E6683378002B3FF48FAD73782BB14FF42C
:1057E00080625F49684642F03DF9B3782BB14FF4CF
:1057F00080625C49684642F035F9F3782BB14FF48A
:1058000080625949684642F02DF933792BB14FF443
:1058100080625649684642F025F973792BB14FF4FE
:1058200080625349684642F01DF9B3792BB14FF4B9
:1058300080625049684642F015F9F3792BB14FF474
:1058400080624D49684642F00DF9337A2BB14FF42E
:1058500080624A49684642F005F9737A2BB14FF4E9
:1058600080624749684642F0FDF8B37A2BB14FF4A5
:1058700080624449684642F0F5F8F37A2BB14FF460
:1058800080624149684642F0EDF8337B2BB14FF41A
:1058900080623E49684642F0E5F8737B002B3FF496
:1058A0002BAD4FF480623A4923E5E3681A78002A69
:1058B0003FF422AD5B78002B3FF41EAD4FF48062C5
:1058C000344916E5E6683378002B3FF415AD73785C
:1058D000002B3FF419AF4FF480621B4911E7E668D3
:1058E0003378002B3FF408AD73782BB14FF480620E
:1058F0002949684642F0B6F8B3782BB14FF480627C
:105900000D49684642F0AEF8F3782BB14FF480624F
:105910002249684642F0A6F83379002B3FF4ECACFC
:105920004FF480621E49E4E4C8BE050095BE050040
:105930001EBF05002BBF0500B5BE05003FBF05001B
:1059400045BF050053BF0500C4BE050058BF050094
:105950005DBF050063BF050069BF0500CCBF050042
:105960006EBF050075BF05007CBF050082BF050046
:1059700089BF050090BF050097BF05009EBF0500C9
:10598000A5BF0500ABBF0500B4BF0500B8BF05004B
:10599000BCBF0500C1BF0500CBBF0500D1BF0500DE
:1059A000DABF0500E6683378002B3FF4A5AC7378C6
:1059B0002BB14FF480628249684642F053F8B378C5
:1059C0002BB14FF480627F49684642F04BF8F37880
:1059D000002B3FF491AC4FF480627B4989E4E66888
:1059E0003378002B3FF488AC73782BB14FF480628E
:1059F0007649684642F036F8B3782BB14FF48062AE
:105A00007349684642F02EF8F3782BB14FF4806268
:105A10007049684642F026F833792BB14FF4806222
:105A20006D49684642F01EF873792BB14FF48062DD
:105A30006A49684642F016F8B379002B3FF45CAC33
:105A40004FF48062664954E4E6683378002B3FF4F3
:105A500053AC73782BB14FF480626249684642F0D0
:105A600001F8B3782BB14FF480625F49684641F08A
:105A7000F9FFF378002B3FF43FAC4FF480625B49B1
:105A800037E4E6683378002B3FF436AC7378002BAC
:105A90003FF43AAE4FF48062554932E6E668337817
:105AA000002B3FF429AC73782BB14FF480624D4941
:105AB000684641F0D7FFB378DCE7E6683378002B1F
:105AC0003FF41AAC73782BB14FF4806249496846B1
:105AD00041F0C8FFB3782BB14FF480624649684665
